:020000040000FA
:060000008DEF26F0120056
:020006001200E6
:0600080095EF23F0120049
:02000E001200DE
:020010000100ED
:020012000100EB
:020014000000EA
:06001800F3EF23F01200DB
:02001E000600DA
:1000200014000000040E000002000000134E000047
:10003000D30000000C00000012000000020E0000BF
:100040000200000010000000000E0000020000008E
:10005000A04D00006000000073000000774D00001C
:08006000060E00000100000083
:080068000A0EE66EE66A51EC97
:1000700025F0E552E5520E01042B000E0523120077
:10008000D9CFE6FFE1CFD9FF430EE126D9CFE9FF73
:10009000DACFEAFF460EEE6EEE6AD950020FE96E35
:1000A000DACFEAFF480EEE6EEE6AD950040FE96E21
:1000B000DACFEAFF200EEE6EEE6AD950060FE96E37
:1000C000DACFEAFF410EEE6EEE6AD950080FE96E04
:1000D000DACFEAFF420EEE6EEE6AD9500A0FE96EF1
:1000E000DACFEAFF430EEE6EEE6AD9500C0FE96EDE
:1000F000DACFEAFF440EEE6EEE6AD9500E0FE96ECB
:10010000DACFEAFF470EEE6EEE6A070EF36E100EC0
:10011000F3CFDBFF110EDB6A120EDB6A130EDB6A14
:10012000140EDB6A150EDB6AFE0EF36E160EF3CFAD
:10013000DBFF170EDB68180EDB6A190EDB6A1A0E7E
:10014000DB6A1B0EDB6A1C0EDB6A1D0EDB6A010E0E
:10015000F36E1E0EF3CFDBFF010EF36E1F0EF3CF17
:10016000DBFF080EF36E200EF3CFDBFF210EDB6A00
:10017000640EF36E220EF3CFDBFF230EDB6A140E48
:10018000F36E240EF3CFDBFF250EDB6A260EDB6A4F
:10019000270EDB6A140EF36E280EF3CFDBFFAAECFA
:1001A00014F046EC25F0BCEC26F0010E0E01006FB9
:1001B000016BE66A34EC20F0E552F28ED08E0A0E26
:1001C000E66EE66A51EC25F0E552E5520E0100516B
:1001D000011102E16BEF0AF0E66A86EC15F0E552D8
:1001E000010EE66E9FEC14F0E552E66A120EDBCFCC
:1001F000E6FF100EDBCFE6FFD9CFE6FFDACFE6FF52
:10020000FEEC15F0146E050EE15E14501C0EDB6A58
:100210001D0EDB6A1C0EDBCF14F01D0EDBCF15F0BC
:10022000D890155004E60A0E145C000E155837E2FB
:10023000E66A080E086E096A1C0EDBCF0DF01D0E73
:10024000DBCF0EF0CAEC24F00650E66EE66AD95019
:10025000060FE66E000EDA20E66EFEEC15F0146E68
:10026000050EE15E1450D950290F146EDACF15F047
:100270001C0EDB501424E96E1D0EDB501520EA6EB7
:10028000010EEF6E190EE66EE66A72EC14F0E5529E
:10029000E5521C0EDB2A1D0E01E3DB2ABBD71C0E28
:1002A000DB6A1D0EDB6A1C0EDBCF14F01D0EDBCFEC
:1002B00015F0D890155004E60A0E145C000E15587F
:1002C00038E2E66A080E086E096A1C0EDBCF0DF0F4
:1002D0001D0EDBCF0EF0CAEC24F00650E66E010EC8
:1002E000E66ED9500C0FE66E000EDA20E66EFEECDC
:1002F00015F0146E050EE15E1450D950330F146ED4
:10030000DACF15F01C0EDB501424E96E1D0EDB5005
:100310001520EA6E010EEF6E190EE66EE66A72ECBB
:1003200014F0E552E5521C0EDB2A1D0E01E3DB2A18
:10033000BAD7180EDB6A190EDB6A1A0EDB6A1B0EBF
:10034000DB6A140EF36E240EF3CFDBFF250EDB6A9F
:10035000640EF36E220EF3CFDBFF230EDB6AD9505F
:10036000260FE96EDACFEAFF2C0EEE1802E1010E3D
:10037000ED1805E1160EF36E280EF3CFDBFFD95012
:10038000260FE96EDACFEAFF580EEE1802E1020EF0
:10039000ED1805E11A0EF36E280EF3CFDBFFD950EE
:1003A000260FE96EDACFEAFF840EEE1802E1030EA3
:1003B000ED1805E11E0EF36E280EF3CFDBFF0E01E4
:1003C0000051011102E169EF0AF0D9503D0FE66ECC
:1003D000000EDA20E66E22EC21F0E552E5523F0EE7
:1003E000DBCF14F0400EDBCF15F0153404E21450CF
:1003F0006408000E155436E2D950120FE96EDACFB8
:10040000EAFF7B0EEE1801E1ED502CE0E66A120ED9
:10041000DBCFE6FF100EDBCFE6FFD950040FE66E10
:10042000000EDA20E66EFEEC15F0146E050EE15EAD
:100430001450E66A120EDB2ADBCF14F0130E01E330
:10044000DB2ADBCF15F01450E66E100EDBCFE6FF93
:10045000D9CFE6FFDACFE6FFFEEC15F0166E050EFB
:10046000E15E16503F0EDBCF14F0400EDBCF15F0EF
:10047000D880155004E79C0E145CFF0E155834E22A
:10048000D950120FE96EDACFEAFFEE50ED102CE0F2
:10049000E66A120EDBCFE6FF100EDBCFE6FFD95087
:1004A000040FE66E000EDA20E66EFEEC15F0146E18
:1004B000050EE15E1450E66A120EDB06DBCF14F087
:1004C000130E01E2DB06DBCF15F01450E66E100EC2
:1004D000DBCFE6FFD9CFE6FFDACFE6FFFEEC15F083
:1004E000166E050EE15E1650160EDBCF14F0170ED9
:1004F000DBCF15F00001800E15142EE1E66A140E14
:10050000DBCFE6FF160EDBCFE6FFD950040FE66E19
:10051000000EDA20E66EFEEC15F0146E050EE15EBC
:100520001450E66A140EDBCFE6FF160EDB06DBCFB7
:1005300014F0170E01E2DB06DBCF15F01450E66E67
:10054000D950020FE66E000EDA20E66EFEEC15F0D2
:10055000166E050EE15E1650D950160FE96EDACF11
:10056000EAFFFF0EEE1802E1FF0EED1813E1E66A56
:10057000140EDBCFE6FF160EDBCFE6FFD950040FDB
:10058000E66E000EDA20E66EFEEC15F0146E050E37
:10059000E15E14504EEC23F0000938E1160EDBCF7B
:1005A00014F0170EDBCF15F00001800E15142EE0AD
:1005B000120EDBCF08F0130EDBCF09F0140E08C0CB
:1005C000DBFF150E09C0DBFF100EDBCF14F0110EA0
:1005D000DBCF15F01406000E155A160E14C0DBFF03
:1005E000170E15C0DBFFE66A140EDBCFE6FF160E12
:1005F000DBCFE6FFD950020FE66E000EDA20E66E82
:10060000FEEC15F0146E050EE15E1450160EDBCFF5
:1006100014F0170EDBCF15F01A0EDB50141803E19F
:100620001B0EDB50151819E0160EDBCF16F0170E57
:10063000DBCF17F0010EE76E1A0EDBCF18F01B0EA2
:10064000DBCF19F0E7501826000E192218501618A3
:1006500002E11950171801E0ACD21C0EDB6A1D0E26
:10066000DB6A1C0EDBCF14F01D0EDBCF15F0D8902B
:10067000155004E60A0E145C000E155801E399D2D9
:10068000030EE76E140EDBCF14F0150EDBCF15F062
:10069000E7501426000E1522180EDBCF18F0190EA5
:1006A000DBCF19F01C0EDBCF08F01D0EDBCF09F0FD
:1006B000200EDBCF0DF0210EDBCF0EF0CAEC24F0C4
:1006C00018500624166E19500720176E155017186B
:1006D000E8AE02D0173404D01650145C17501558E9
:1006E00001E221D1030EE76E140EDBCF1AF0150ED6
:1006F000DBCF1BF0E7501A26000E1B22180EDBCFB3
:100700001EF0190EDBCF1FF0010EE76E1C0EDBCFC3
:1007100020F01D0EDBCF21F0E7502026000E212215
:1007200020C008F021C009F0200EDBCF0DF0210E13
:10073000DBCF0EF0CAEC24F01E5006241C6E1F50B6
:1007400007201D6E1B501D18E8AE02D01D3404D0CA
:100750001C501A5C1D501B5801E3E5D0D950330FD3
:10076000226EDACF23F01C0EDB502224E96E1D0E20
:10077000DB502320EA6EEF5001E1D5D0E66A180E77
:10078000DBCF16F0190EDBCF17F01C0EDBCF08F015
:100790001D0EDBCF09F0200EDBCF0DF0210EDBCFDD
:1007A0000EF0CAEC24F016500624146E17500720E1
:1007B000156E1450E66E1A0EDBCF18F01B0EDBCF51
:1007C00019F0010E1824E66ED950040FE66E000EE3
:1007D000DA20E66EFEEC15F01A6E050EE15E1A5098
:1007E000E66A180EDBCF16F0190EDBCF17F01C0EE1
:1007F000DBCF08F01D0EDBCF09F0200EDBCF0DF0B4
:10080000210EDBCF0EF0CAEC24F016500624146E35
:1008100017500720156E1450E66E1A0EDBCF18F035
:100820001B0EDBCF19F0010E1824E66ED9500E0F07
:10083000E66E000EDA20E66EFEEC15F01A6E050E7E
:10084000E15E1A50190EE66EE66A72EC14F0E5529B
:10085000E552E66A180EDBCF16F0190EDBCF17F063
:100860001C0EDBCF08F01D0EDBCF09F0200EDBCF16
:100870000DF0210EDBCF0EF0CAEC24F0165006244A
:10088000146E17500720156E1450E66E1A0EDBCF4B
:1008900018F01B0EDBCF19F0010E1824E66ED950AC
:1008A000040FE66E000EDA20E66EFEEC15F01A6E0E
:1008B000050EE15E1A50D950330F146EDACF15F0E1
:1008C0001C0EDB501424E96E1D0EDB501520EA6E61
:1008D000EF6AE66A140EDBCFE6FF160EDBCFE6FF0B
:1008E000D950040FE66E000EDA20E66EFEEC15F02D
:1008F000146E050EE15E1450FE0EF36E160EF3CF6D
:10090000DBFF170EDB68D950260FE96EDACFEAFF5E
:100910000A0EEE26000EED22240EDB06250E01E265
:10092000DB0647D140D1030EE76E140EDBCF14F087
:10093000150EDBCF15F0E7501426000E1522180E09
:10094000DBCF18F0190EDBCF19F01C0EDBCF08F04F
:100950001D0EDBCF09F0200EDBCF0DF0210EDBCF1B
:100960000EF0CAEC24F018500624166E1950072019
:10097000176E15501718E8AE02D0173404D0165071
:10098000145C1750155801E20ED1030EE76E140ED9
:10099000DBCF1AF0150EDBCF1BF0E7501A26000E46
:1009A0001B22180EDBCF1EF0190EDBCF1FF0010E3D
:1009B000E76E1C0EDBCF20F01D0EDBCF21F0E750E1
:1009C0002026000E212220C008F021C009F0200EB0
:1009D000DBCF0DF0210EDBCF0EF0CAEC24F01E5061
:1009E00006241C6E1F5007201D6E1B501D18E8AEFC
:1009F00002D01D3404D01C501A5C1D501B5801E35A
:100A0000D2D0D950290F226EDACF23F01C0EDB5042
:100A10002224E96E1D0EDB502320EA6EEF5001E127
:100A2000C2D0E66A180EDBCF16F0190EDBCF17F036
:100A30001C0EDBCF08F01D0EDBCF09F0200EDBCF44
:100A40000DF0210EDBCF0EF0CAEC24F01650062478
:100A5000146E17500720156E1450E66E1A0EDBCF79
:100A6000E6FFD950040FE66E000EDA20E66EFEECCB
:100A700015F0186E050EE15E1850E66A180EDBCF11
:100A800016F0190EDBCF17F01C0EDBCF08F01D0E91
:100A9000DBCF09F0200EDBCF0DF0210EDBCF0EF007
:100AA000CAEC24F016500624146E17500720156E59
:100AB0001450E66E1A0EDBCFE6FFD9500E0FE66E2D
:100AC000000EDA20E66EFEEC15F0186E050EE15E03
:100AD0001850190EE66EE66A72EC14F0E552E55213
:100AE000E66A180EDBCF16F0190EDBCF17F01C0EDE
:100AF000DBCF08F01D0EDBCF09F0200EDBCF0DF0B1
:100B0000210EDBCF0EF0CAEC24F016500624146E32
:100B100017500720156E1450E66E1A0EDBCFE6FF55
:100B2000D950040FE66E000EDA20E66EFEEC15F0EA
:100B3000186E050EE15E1850D950290F146EDACFE9
:100B400015F01C0EDB501424E96E1D0EDB50152031
:100B5000EA6EEF6AE66A140EDBCFE6FF160EDBCF15
:100B6000E6FFD950040FE66E000EDA20E66EFEECCA
:100B700015F0146E050EE15E1450FE0EF36E160EA7
:100B8000F3CFDBFF170EDB68D950260FE96EDACF03
:100B9000EAFF140EEE26000EED22240EDB06250ED3
:100BA00001E2DB0606D01C0EDB2A1D0E01E3DB2A68
:100BB00058D5220EDBCF14F0230EDBCF15F00E013B
:100BC00015500519E8AE02D0053504D00451145C67
:100BD0000551155801E378D31C0EDB6A1D0EDB6A44
:100BE0001C0EDBCF14F01D0EDBCF15F0D890155086
:100BF00004E60A0E145C000E155841E2D950290F84
:100C0000146EDACF15F01C0EDB501424E96E1D0EA5
:100C1000DB501520EA6EEF502CE0E66A180EDBCFB1
:100C200016F0190EDBCF17F0200EDBCF08F0210EE7
:100C3000DBCF09F01C0EDBCF0DF01D0EDBCF0EF06D
:100C4000CAEC24F016500624146E17500720156EB7
:100C50001450E66E1A0EDBCFE6FFD950040FE66E95
:100C6000000EDA20E66EFEEC15F0186E050EE15E61
:100C700018501C0EDB2A1D0E01E3DB2AB1D71C0E17
:100C8000DB6A1D0EDB6A1C0EDBCF14F01D0EDBCF02
:100C900015F0D890155004E60A0E145C000E155895
:100CA00047E2D950330F146EDACF15F01C0EDB502B
:100CB0001424E96E1D0EDB501520EA6EEF5032E071
:100CC000E66A180EDBCF16F0190EDBCF17F0200EF8
:100CD000DBCF08F0210EDBCF09F01C0EDBCF0DF0CF
:100CE0001D0EDBCF0EF0CAEC24F016500624146E55
:100CF00017500720156E1450E66E1A0EDBCF18F051
:100D00001B0EDBCF19F0010E1824E66ED950040F2C
:100D1000E66E000EDA20E66EFEEC15F01A6E050E99
:100D2000E15E1A501C0EDB2A1D0E01E3DB2AABD755
:100D30001C0EDB6A1D0EDB6A1C0EDBCF14F01D0ED1
:100D4000DBCF15F0D890155004E60A0E145C000EA7
:100D5000155801E399D1D950290F146EDACF15F047
:100D60001C0EDB501424E96E1D0EDB501520EA6EBC
:100D7000EF503FE0180EDBCF18F0190EDBCF19F063
:100D8000200EDBCF08F0210EDBCF09F01C0EDBCFED
:100D90000DF01D0EDBCF0EF0CAEC24F01850062427
:100DA000166E19500720176E780E161801E11750AD
:100DB00020E11A0EDBCF1AF01B0EDBCF1BF0020E68
:100DC0000D6E0E6A1AC008F01BC009F0A4EC24F0E6
:100DD00004C01AF005C01BF01A501B100AE1D950CC
:100DE0001A0FE96EDACFEAFFEE2A000EED224CD19F
:100DF00045D1D950330F146EDACF15F01C0EDB50ED
:100E00001424E96E1D0EDB501520EA6EEF503FE012
:100E1000180EDBCF18F0190EDBCF19F0200EDBCF48
:100E200008F0210EDBCF09F01C0EDBCF0DF01D0EFC
:100E3000DBCF0EF0CAEC24F018500624166E1950C1
:100E40000720176E780E161801E1175020E11A0ED0
:100E5000DBCF1AF01B0EDBCF1BF0020E0D6E0E6AFD
:100E60001AC008F01BC009F0A4EC24F004C01AF06A
:100E700005C01BF01A501B100AE1D9501A0FE96E79
:100E8000DACFEAFFEE2A000EED22FED0F7D0D950DD
:100E9000290F146EDACF15F01C0EDB501424E96E06
:100EA0001D0EDB501520EA6EEF5047E0180EDBCF29
:100EB00018F0190EDBCF19F0200EDBCF08F0210E51
:100EC000DBCF09F01C0EDBCF0DF01D0EDBCF0EF0DB
:100ED000CAEC24F018500624166E19500720176E1D
:100EE000165017102AE1D9501A0FE96EDACFEAFF2F
:100EF000EE50ED1022E01A0EDBCF1AF01B0EDBCF06
:100F00001BF0020E0D6E0E6A1AC008F01BC009F02D
:100F1000A4EC24F004C01AF005C01BF0010E1A184E
:100F200001E11B500AE1D9501A0FE96EDACFEAFF4E
:100F3000EE2A000EED22A8D0A1D0D950330F146EA6
:100F4000DACF15F01C0EDB501424E96E1D0EDB50B9
:100F50001520EA6EEF5047E0180EDBCF18F0190E9F
:100F6000DBCF19F0200EDBCF08F0210EDBCF09F02C
:100F70001C0EDBCF0DF01D0EDBCF0EF0CAEC24F003
:100F800018500624166E19500720176E16501710A9
:100F90002AE1D9501A0FE96EDACFEAFFEE50ED10D0
:100FA00022E01A0EDBCF1AF01B0EDBCF1BF0020E75
:100FB0000D6E0E6A1AC008F01BC009F0A4EC24F0F4
:100FC00004C01AF005C01BF0010E1A1801E11B50F5
:100FD0000AE1D9501A0FE96EDACFEAFFEE2A000EC5
:100FE000ED2252D04BD0D9501C0FE96EDACFEAFF78
:100FF000090EEE1801E1ED5027E11A0EDBCF14F0D7
:101000001B0EDBCF15F0020E0D6E0E6A14C008F039
:1010100015C009F0A4EC24F004C014F005C015F0CC
:101020001450151011E1200EDBCF14F0210EDBCF90
:1010300015F0D950180FE96EDACFEAFF1450EE26FA
:101040001550ED2221D01AD0D9501C0FE96EDACFFD
:10105000EAFF090EEE1801E1ED5010E1200EDBCFA2
:1010600014F0210EDBCF15F0D950180FE96EDACF4E
:10107000EAFF1450EE5E1550ED5A06D01C0EDB2A26
:101080001D0E01E3DB2A58D61C0EDB6A1D0EDB6A3F
:101090001C0EDBCF14F01D0EDBCF15F0D8901550D1
:1010A00004E60A0E145C000E155871E2D950290F9F
:1010B000146EDACF15F01C0EDB501424E96E1D0EF1
:1010C000DB501520EA6EEF505CE01E0EDB502DE089
:1010D000E66A180EDBCF16F0190EDBCF17F0200EE4
:1010E000DBCF08F0210EDBCF09F01C0EDBCF0DF0BB
:1010F0001D0EDBCF0EF0CAEC24F016500624146E41
:1011000017500720156E1450E66E1A0EDBCFE6FF5F
:10111000D950080FE66E000EDA20E66EFEEC15F0F0
:10112000186E050EE15E18502CD0E66A180EDBCF63
:1011300016F0190EDBCF17F0200EDBCF08F0210ED2
:10114000DBCF09F01C0EDBCF0DF01D0EDBCF0EF058
:10115000CAEC24F016500624146E17500720156EA2
:101160001450E66E1A0EDBCFE6FFD950060FE66E7E
:10117000000EDA20E66EFEEC15F0186E050EE15E4C
:1011800018501C0EDB2A1D0E01E3DB2A81D71C0E32
:10119000DB6A1D0EDB6A1C0EDBCF14F01D0EDBCFED
:1011A00015F0D890155004E60A0E145C000E155880
:1011B00001E37DD0D950330F146EDACF15F01C0E39
:1011C000DB501424E96E1D0EDB501520EA6EEF5043
:1011D00068E01E0EDB5033E0E66A180EDBCF16F037
:1011E000190EDBCF17F0200EDBCF08F0210EDBCF7E
:1011F00009F01C0EDBCF0DF01D0EDBCF0EF0CAEC9C
:1012000024F016500624146E17500720156E145043
:10121000E66E1A0EDBCF18F01B0EDBCF19F0010EB5
:101220001824E66ED9500A0FE66E000EDA20E66E3C
:10123000FEEC15F01A6E050EE15E1A5032D0E66A29
:10124000180EDBCF16F0190EDBCF17F0200EDBCF18
:1012500008F0210EDBCF09F01C0EDBCF0DF01D0EC8
:10126000DBCF0EF0CAEC24F016500624146E175093
:101270000720156E1450E66E1A0EDBCF18F01B0E09
:10128000DBCF19F0010E1824E66ED9500C0FE66E74
:10129000000EDA20E66EFEEC15F01A6E050EE15E29
:1012A0001A501C0EDB2A1D0E01E3DB2A74D70E0137
:1012B000046B056B1E0EDB5002E0000E01D0010E28
:1012C000E76E1E0EE7CFDBFF240EDBCF14F0250EFA
:1012D000DBCF15F0280EDB50FC0F166E176A16BE1A
:1012E000176815501718E8AE02D0173404D01650FE
:1012F000145C1750155807E23C0EF36E220EF3CF24
:10130000DBFF230EDB6A240EDBCF14F0250EDBCFD0
:1013100015F0280EDB50F80F166E176A16BE176808
:1013200015501718E8AE02D0173404D01650145CCC
:101330001750155807E2280EF36E220EF3CFDBFF8D
:10134000230EDB6A240EDBCF14F0250EDBCF15F065
:10135000280EDB50F40F166E176A16BE176815506C
:101360001718E8AE02D0173404D01650145C17508A
:10137000155807E2140EF36E220EF3CFDBFF230E97
:10138000DB6A240EDBCF14F0250EDBCF15F0280E20
:10139000DB50F00F166E176A16BE17681550171837
:1013A000E8AE02D0173404D01650145C175015580C
:1013B00007E20A0EF36E220EF3CFDBFF230EDB6A89
:1013C000240EDBCF14F0250EDBCF15F0280EDB50FA
:1013D000EE0F166E176A16BE176815501718E8AE8E
:1013E00002D0173404D01650145C1750155804E27C
:1013F000220EDB6A230EDB6A1A0EDBCF14F01B0E03
:10140000DBCF15F0D890155004E6060E145C000EE4
:10141000155853E3D9501A0FE96EDACFEAFF070ED9
:10142000EE1801E1ED5011E1640EE66EE66A72EC31
:1014300014F0E552E552260EDBCFE6FF270EDBCF98
:10144000E6FF53D8E552E55246D01C0EDB6A1D0E6E
:10145000DB6A1C0EDBCF14F01D0EDBCF15F0D8902D
:10146000155004E60A0E145C000E155826E2D950F9
:10147000330F146EDACF15F01C0EDB501424E96E16
:101480001D0EDB501520EA6EEF5011E0640EE66E83
:10149000E66A72EC14F0E552E552260EDBCFE6FF69
:1014A000270EDBCFE6FF21D8E552E55214D01C0E03
:1014B000DB2A1D0E01E3DB2ACCD7D950240FE96EBD
:1014C000DACFEAFFEE50ED1001E103D00400DFEFC8
:1014D00001F0E6EF00F0430EE15C02E2E16AE55262
:1014E000E16EE552E7CFD9FF1200D9CFE6FFE1CF99
:1014F000D9FF2A0EE126AA0EDE6EAA0EDD6E060EBA
:10150000F36E020EF3CFDBFF030EDB6AD950040F3C
:10151000E96EDACFEAFF470EEE6E610EEE6E6D0EEB
:10152000EE6E650EEE6E2D0EEE6E4F0EEE6E760EBC
:10153000EE6E650EEE6E720EEE6EEE6AD9500E0F06
:10154000E96EDACFEAFF410EEE6EEE6AD950100F67
:10155000E96EDACFEAFF430EEE6EEE6A260EDB6A24
:10156000270EDB6A280EDB6A290EDB6AAAEC14F070
:10157000E66A86EC15F0E5521FEC22F0AFEC22F0A3
:10158000E66A9FEC14F0E552E66A280EE66E010E5C
:10159000E66ED950040FE66E000EDA20E66EFEEC21
:1015A00015F0146E050EE15E1450010EE66E9FEC10
:1015B00014F0E552E66A0F0EE66EE66AD9500E0F99
:1015C000E66E000EDA20E66EFEEC15F0146E050EE7
:1015D000E15E1450E66A140EE66EE66AD950100F0A
:1015E000E66E000EDA20E66EFEEC15F0146E050EC7
:1015F000E15E1450020EDBCFE6FF030EDBCFE6FF09
:10160000F40EE66E000EE66EDECFE6FFDDCFE6FFFF
:101610007BEC1CF0146E060EE15E1450280EDB6AA3
:10162000290EDB6A280EDBCF14F0290EDBCF15F074
:10163000020EDBCF16F0030EDBCF17F01550171894
:10164000E8AE02D0173404D01650145C1750155869
:1016500001E3B1D0FD0EDBCF14F0FE0EDBCF15F0B1
:10166000280EDBCFE9FF290EDBCFEAFFF40EE926D7
:10167000000EEA22EF50186E196A18C019F0186AA5
:10168000010EE76E280EDBCFE9FF290EDBCFEAFF64
:10169000E750E926000EEA22F40EE926000EEA22BF
:1016A000EF5000011824166E000E1920176E175007
:1016B0001518E8AE02D0153404D01450165C15503D
:1016C00017586FE2280EDBCFE9FF290EDBCFEAFFC8
:1016D000F40EE926000EEA22EF50166E176A16C0C5
:1016E00017F0166A010EE76E280EDBCFE9FF290E10
:1016F000DBCFEAFFE750E926000EEA22F40EE926E6
:10170000000EEA22EF5000011624146E000E17207E
:10171000156E260E14C0DBFF270E15C0DBFFFD0E75
:10172000DBCF14F0FE0EDBCF15F015C014F0156AF8
:10173000FF0E1416000E1516280EDBCFE9FF290E3A
:10174000DBCFEAFFF40EE926000EEA2214C0EFFF19
:10175000FF0EE76EFD0EDBCF14F0FE0EDBCF15F0B3
:10176000E7501416156A010EE76E280EDBCFE9FF6D
:10177000290EDBCFEAFFE750E926000EEA22F40E3D
:10178000E926000EEA2214C0EFFF260EDBCF08F098
:10179000270EDBCF09F0FD0E08C0DBFFFE0E09C0EF
:1017A000DBFFD950280FE96EDACFEAFF020EEE26F2
:1017B000000EED2237D7280EDB6A290EDB6A280ED1
:1017C000DBCF14F0290EDBCF15F0020EDBCF16F0C5
:1017D000030EDBCF17F015501718E8AE02D0173400
:1017E00004D01650145C1750155870E2280EDBCF49
:1017F000E9FF290EDBCFEAFFF40EE926000EEA220C
:10180000EF50166E176A16C017F0166A010EE76ED3
:10181000280EDBCFE9FF290EDBCFEAFFE750E926F0
:10182000000EEA22F40EE926000EEA22EF50000133
:101830001624146E000E1720156E260E14C0DBFF42
:10184000270E15C0DBFFE66A9FEC14F0E552260E6A
:10185000DBCFE6FF270EDBCFE6FF550E146E4D0EF5
:10186000156E166A14C0E6FF15C0E6FF16C0E6FF47
:10187000D950120FE66E000EDA20E66E4EEC24F020
:10188000176E070EE15E1750E66A280EE66E280E08
:10189000DBCF14F0290EDBCF15F0030E1424E66E17
:1018A000D950120FE66E000EDA20E66EFEEC15F04F
:1018B000166E050EE15E1650D950280FE96EDACF8C
:1018C000EAFF020EEE26000EED2279D7DECFE6FF0C
:1018D000DDCFE6FF23EC1EF0E552E552020EDBCF32
:1018E000E6FF030EDBCFE6FFF40EE66E000EE66EBB
:1018F000DECFE6FFDDCFE6FFDBEC1CF0146E060E5C
:10190000E15E1450640EE66EE66A72EC14F0E55285
:10191000E5524EEC23F0040802E10400FAD72A0E47
:10192000E15C02E2E16AE552E16EE552E7CFD9FF00
:101930001200D9CFE6FFE1CFD9FF6C0EE126D9CF57
:10194000E9FFDACFEAFF200EEE6E200EEE6E4D0EAE
:10195000EE6E200EEE6E200EEE6E200EEE6E200E5F
:10196000EE6E200EEE6E4D0EEE6E200EEE6E200E22
:10197000EE6EEE6AD9500C0FE96EDACFEAFF200E58
:10198000EE6E200EEE6E200EEE6E4D0EEE6E200E02
:10199000EE6E200EEE6E200EEE6E4D0EEE6E200EF2
:1019A000EE6E200EEE6E200EEE6EEE6AD950180F1F
:1019B000E96EDACFEAFF200EEE6E200EEE6E4D0ECF
:1019C000EE6E4D0EEE6E4D0EEE6E4D0EEE6E4D0E3B
:1019D000EE6E4D0EEE6E4D0EEE6E200EEE6E200E85
:1019E000EE6EEE6AD950240FE96EDACFEAFF200ED0
:1019F000EE6E4D0EEE6E4D0EEE6E200EEE6E4D0E38
:101A0000EE6E4D0EEE6E4D0EEE6E200EEE6E4D0E27
:101A1000EE6E4D0EEE6E200EEE6EEE6AD950300F69
:101A2000E96EDACFEAFF4D0EEE6E4D0EEE6E4D0E04
:101A3000EE6E4D0EEE6E4D0EEE6E4D0EEE6E4D0ECA
:101A4000EE6E4D0EEE6E4D0EEE6E4D0EEE6E4D0EBA
:101A5000EE6EEE6AD9503C0FE96EDACFEAFF4D0E1A
:101A6000EE6E200EEE6E4D0EEE6E4D0EEE6E4D0EC7
:101A7000EE6E4D0EEE6E4D0EEE6E4D0EEE6E4D0E8A
:101A8000EE6E200EEE6E4D0EEE6EEE6AD950480FE1
:101A9000E96EDACFEAFF4D0EEE6E200EEE6E4D0EC1
:101AA000EE6E200EEE6E200EEE6E200EEE6E200E0E
:101AB000EE6E200EEE6E4D0EEE6E200EEE6E4D0EA4
:101AC000EE6EEE6AD950540FE96EDACFEAFF200EBF
:101AD000EE6E200EEE6E200EEE6E4D0EEE6E4D0E84
:101AE000EE6E200EEE6E4D0EEE6E4D0EEE6E200E74
:101AF000EE6E200EEE6E200EEE6EEE6AD950600F86
:101B0000E96EDACFEAFF4F0EEE6E720EEE6E700ED9
:101B1000EE6E610EEE6E7A0EEE6EEE6AD950660FC4
:101B2000E96EDACFEAFF260EEE6E4E0EEE6E6F0E07
:101B3000EE6E610EEE6E6D0EEE6EEE6AE66A86EC8D
:101B400015F0E552010EE66E9FEC14F0E552E66AE0
:101B5000E66AE66AD9CFE6FFDACFE6FFFEEC15F0DB
:101B6000146E050EE15E1450E66AE66A010EE66E3A
:101B7000D9500C0FE66E000EDA20E66EFEEC15F082
:101B8000146E050EE15E1450E66AE66A020EE66E19
:101B9000D950180FE66E000EDA20E66EFEEC15F056
:101BA000146E050EE15E1450E66AE66A030EE66EF8
:101BB000D950240FE66E000EDA20E66EFEEC15F02A
:101BC000146E050EE15E1450E66AE66A040EE66ED7
:101BD000D950300FE66E000EDA20E66EFEEC15F0FE
:101BE000146E050EE15E1450E66AE66A050EE66EB6
:101BF000D9503C0FE66E000EDA20E66EFEEC15F0D2
:101C0000146E050EE15E1450E66AE66A060EE66E94
:101C1000D950480FE66E000EDA20E66EFEEC15F0A5
:101C2000146E050EE15E1450E66AE66A070EE66E73
:101C3000D950540FE66E000EDA20E66EFEEC15F079
:101C4000146E050EE15E1450E66A9FEC14F0E55246
:101C5000E66A500EE66E040EE66ED950600FE66E30
:101C6000000EDA20E66EFEEC15F0146E050EE15E55
:101C70001450E66A500EE66E050EE66ED950660FF9
:101C8000E66E000EDA20E66EFEEC15F0146E050E20
:101C9000E15E1450640EE66EE66A72EC14F0E552F2
:101CA000E5524EEC23F0040802E10400FAD76C0E72
:101CB000E15C02E2E16AE552E16EE552E7CFD9FF6D
:021CC000120010
:0E1CC2009DEC13F0FB0EDBCFF3FFDB06F350BF
:101CD00000090AE0EBEC13F0FA0E56EC14F0F3E115
:101CE000151CF1E1010E01D0000ECCEF13F09DECBC
:101CF00013F03B0EE12402E3E168E652E16E010ECF
:101D0000DB6A020EDB6AF90EDBCFF6FFFA0EDBCFE1
:101D1000F7FFFB0EDBCFF8FF0800F550DF6EDF505A
:101D200002E1F0EF12F0250EDF5C02E0E3EF12F0CB
:101D3000030EDB6A040EDB6A050EDB6A060EDB6A45
:101D4000070EDB6A05EC13F02D0EDF5C0CE02B0EAA
:101D5000DF5C09E0200EDF5C06E0230EDF5C03E0C1
:101D6000300EDF5C1AE1DF50300A14E0130A0FE096
:101D7000030A0AE00B0A05E0060AE4E1030EDB8031
:101D8000E1D7030EDB82DED7030EDB84DBD7030E45
:101D9000DB86D8D7030EDB88D5D72A0EDF5C1BE1A4
:101DA00001EC13F04FEC13F010E0030EDB80086839
:101DB0000968130EDBCF0DF0140EDBCF0EF0CAEC6A
:101DC00024F0040E06C0DBFF03D0130E38EC13F032
:101DD00005EC13F00BD0090EDB6AA6EC13F003E060
:101DE0001AEC14F0FAD7090E38EC13F0030EDBB03E
:101DF000DB982E0EDF5C1BE105EC13F02A0EDF5C96
:101E00000BE101EC13F04FEC13F003E1130E8AEC3D
:101E100013F005EC13F00BD0090EDB6AA6EC13F0FF
:101E200003E01AEC14F0FAD7090E8AEC13F0680EEE
:101E3000DF5C07E105EC13F0680EDF5C1DE1030ECB
:101E400018D0740EDF5C17E07A0EDF5C14E0480EE9
:101E5000DF5C06E0540EDF5C03E05A0EDF5C02E15B
:101E6000020E07D06C0EDF5C03E06A0EDF5C04E15B
:101E7000010EDDEC13F0C9DBDF506E0A01E17FD308
:101E80001E0A01E192D1200A01E18FD13F0A01E14E
:101E900049D11A0A01E146D10D0A01E143D1200AD4
:101EA00001E140D13A0A01E13DD1200A01E13AD1F4
:101EB000260A01E135D10D0A01E132D11A0A01E108
:101EC000D9D0200A4AE0300A1FE0460A0EE0250A6F
:101ED00001E083D3D950F90FE96EFF0EDA20EA6EE4
:101EE000010EEE5E000EEE5AEE5AEBEC13F0250EEC
:101EF000E66E95DB03E1151C01E169D3E7EC13F015
:101F000001E26BD3DB2A69D3080EDB6A040EDB50D7
:101F1000010806E2040EDB04AFEC13F0DB508BDBB0
:101F2000080EDB5009E0030EDB50010B05E172DB0C
:101F300001E04DD3080EDB6A64DBEFCFDFFF5FEC1F
:101F400014F003E1151C01E142D3E7EC13F001E3C7
:101F5000DB2A60DB01E141D33AD3070EDB500208F4
:101F60000FE12BEC14F0030EF2EC13F00E0EEECF9B
:101F7000DBFF0F0EEECFDBFF100EEECFDBFF20D02E
:101F8000F70EDBCF17F0F80EDBCF18F0020E175E5E
:101F9000000E185AF70E17C0DBFFF80E18C0DBFF53
:101FA00017C0E9FF18C0EAFFE2EC13F0166A0E0E44
:101FB00014C0DBFF0F0E15C0DBFF100E16C0DBFFD9
:101FC0000E0EDBCFE6FF0F0EDBCFE6FF100EDBCFF2
:101FD000E6FF1CEC26F0E552E552E552130E07C071
:101FE000DBFF140E08C0DBFF060EDB5005E0130E0E
:101FF00026EC14F001E26ADB4AEC14F002E2130E64
:1020000037DB0DEC14F006E0040E26EC14F002E2CF
:10201000050E2EDB030EDBB005D0FCDA01E0D7D2D3
:10202000080EDB6A090EDB6A0E0EDBCFF6FF0F0E21
:10203000DBCFF7FF100EDBCFF8FF0800F550DF6EA7
:10204000DF5014E050EC14F011E25FEC14F003E107
:10205000151C01E1BCD2BBDB01E3DB2A090EDB2A44
:10206000D9500E0FE96E000ECBDBE7D7D3DA01E1D2
:10207000B4D2ADD2C6DA110EEECFDBFF120EEDCF29
:10208000DBFF110EDBCFE6FF120EDBCFE6FF0EEC1F
:1020900026F0E552E552130EF3CFDBFF140EF4CF1A
:1020A000DBFF060EDB5004E0130ED0DB01E20EDB9B
:1020B0004AEC14F002E2130EDBDAAFDB05E0040EAB
:1020C000C5DB02E2050ED4DA030EDBB005D0A2DADE
:1020D00001E07DD2080EDB6A090EDB6A110EDBCF50
:1020E000E9FF120EDBCFEAFFEFCFDFFFDF5014E096
:1020F000D7DB12E2E4DB03E1151C01E168D267DB08
:1021000001E3DB2A090EDB2A110EDB2ADBCFE9FF14
:10211000120EE8E3DB2AE6D77DDA01E15ED257D280
:10212000030EDB8E070EDB0410E195DB040E5ADB99
:102130000A0EEECFDBFF0B0EEECFDBFF0C0EEECF69
:10214000DBFF0D0EEECFDBFF6CD0070EDB5003087C
:102150002CE1030EDBAE0DD0B2DA020E76DAEFCF51
:1021600014F0156A166A176A14AE39D01568166825
:1021700035D0F70EDBCF15F0F80EDBCF16F0020EE0
:10218000155E000E165AF70E15C0DBFFF80E16C0CE
:10219000DBFF15C0E9FF16C0EAFFEFCF14F00A0E0F
:1021A00014C0DBFF0B0EDB6A38D0070EDB500208D1
:1021B00009E1030EDBAE04D059DB16AE10D00ED011
:1021C00055DB0DD0030EDBAE12D079DA020E3DDA0C
:1021D000F9DA166A176A15AE02D016681768E2DADD
:1021E0000C0E16C0DBFF0D0E17C0DBFF1AD0F70E6A
:1021F000DBCF16F0F80EDBCF17F0020E165E000EE6
:10220000175AF70E16C0DBFFF80E17C0DBFF16C01B
:10221000E9FF17C0EAFFD6DAC5DA0C0EDB6A0D0E4D
:10222000DB6A060EDB5005E1010EF36E050EF3CFFF
:10223000DBFF150EDB6A160EDB6AD950370F146E02
:10224000000EDA20156E390E14C0DBFF3A0E15C0F1
:10225000DBFF380EDB6A080EDB6A0A0EAEDADF50EF
:10226000780A12E0200A10E0280A0CE0200A0AE0AE
:102270003F0A06E00D0A02E0200A08E1020E05D03E
:10228000080E03D0080EDF26100E97DA030EDBBE11
:1022900002D0DB92DB94DB50800B24E08ADAD8900A
:1022A000030EEB50000A08E6000EEE5C000EEE583E
:1022B000000EEE58000EEE5815E213DA0B680C68AB
:1022C0000D680E68D6EC25F00A0E02C0DBFF0B0E7F
:1022D00003C0DBFF0C0E04C0DBFF0D0E05C0DBFFEF
:1022E0002D0E08D0030EDBA202D02B0E03D0DBA4F0
:1022F00008D0200EF36E170EF3CFDBFF150EDB2A8E
:1023000002D0170EDB6A050EDB5003E1B7D901E1FD
:1023100089D0660E146E4D0E156E000E166E070EE9
:10232000DBCF17F0186A196A1A6A17C00BF018C0C9
:102330000CF019C00DF01AC00EF0D3D941EC26F004
:1023400014500224F36E15500320F46E165004202E
:10235000F86EF4CFF7FFF3CFF6FF0800090EF5CFC4
:10236000DBFF580EDF5C0FE1610EF36E090E7BD9C7
:102370000AE3200E146E090EDBCFE7FF1450E75E70
:10238000090EE7CFDBFF070EDBCF14F0156A166AE4
:10239000176A0FDA14C00BF015C00CF016C00DF060
:1023A00017C00EF0EECF06F0EECF07F0EECF08F03C
:1023B000EFCF09F041EC26F009C0EDFF08C0EDFFBA
:1023C00007C0EDFF06C0EFFF390EDBCFE9FFDB06EC
:1023D0003A0EDBCFEAFF01E2DB06090EDBCFEFFFAF
:1023E000150EDB2A4BD995E1030EDBA61DD06F0E2F
:1023F000DF5C06E1C1D918E3150EDB285BDA14D0E7
:10240000780EDF5C09E0580EDF5C06E0620EDF5CF0
:1024100003E0420EDF5C08E1020EF36E160EF3CF0E
:10242000DBFF02D0150EDB6A030EDB50100B0EE053
:10243000040EDBCF14F0050EDB50D880145406E2F6
:10244000060EDB5003E1040EDB5034DA95D90AE2C4
:10245000050EDBCFE7FF150EDB50E75E050EE7CF7D
:10246000DBFF02D0050EDB6A040EDBCF14F0160E84
:1024700045D9D880145414E2160EDBCFE6FF150EB2
:10248000DBCFE6FF040EDBCFE6FF050EDB50E552A7
:10249000E75CE552D880E754E552D880E7545FD92D
:1024A000030EDB50010B0BE1080EDB5008E0B2D845
:1024B00001E08DD0080EDB50BED8080EDB6A170E87
:1024C000DB5007E088D9170EF1D903E1151C01E1B3
:1024D0007ED0160EDB5016E07ED9300EE66E9FD809
:1024E00002E1151C74E077D9DFCFE6FF94EC25F00C
:1024F000E552E552E552F4CF15F00001F31C02E17C
:10250000151C65E0050EDBCF14F0160EDB50D880ED
:10251000145409E2050EDBCFE7FF160EDB50E75E31
:10252000050EE7CFDBFF300EE66E050ECBD94FE18F
:10253000390EDB2ADBCFE9FF3A0E01E3DB2ADBCFE2
:10254000EAFF090EEFCFDBFFDB500EE044D9090EA6
:10255000ADD902E1151C3BE0390EDB2ADBCFE9FFE8
:102560003A0EEDE3DB2AEBD755D831E1160EDBCF7F
:10257000E6FF080EC3D8E552E7245DD82ED0070E3B
:10258000DB50030A1CE0010A14E0030A07E07BD9D0
:10259000DBCFEEFF020EDBCFEDFF1FD0F5D8196ABF
:1025A00017AE02D0186819682CD8BCD819C0EEFF35
:1025B00014D0EAD817BE186824D8B4D80ED063D97E
:1025C000DBCFEFFF0AD07BD905E1151C03E1F368EF
:1025D000F46810D0FCD801E3DB2A79D98CEF0EF037
:1025E000010EDBCF14F0020EDBCF15F014C0F3FFA9
:1025F00015C0F4FF3B0EE15C02E2E16AE552E16ED8
:10260000CBD029D9020EF2EF13F061D90800F550B2
:10261000DF6E1200200EE66E080E62EF14F094ECEE
:1026200025F0E552E552E552F3CF14F0F4CF15F062
:102630000001F31C1200146E156AD950010F4DD918
:102640001450EE261550ED221200185E000E195A95
:10265000F70E18C0DBFFF80E19C0DBFF18C0E9FF4A
:1026600019C0EAFF1200DBCFF4FFF350F45C120054
:10267000DB50E76E040EE7CFDBFF12000A0EDBCF64
:1026800014F00B0EDBCF15F00C0EDBCF16F00D0E99
:10269000DBCF17F014501510161017101200130E80
:1026A000EECFDBFF140EEDCFDBFF130EDBCF14F00C
:1026B000140EDBCF15F00001800E15141200F70E7A
:1026C000DBCF18F0F80EDBCF19F01200050EDB504F
:1026D000E66ED950130F01D9E552E750EE6EED6A60
:1026E00012000A0EDBCF06F00B0EDBCF07F00C0E4C
:1026F000DBCF08F00D0EDBCF09F01200DBCFE6FFD9
:10270000150EDBCFE6FF050EDB50E552E724E55260
:10271000E7241200DB50CED8010EF36E060EF3CF85
:10272000DBFF1200EE50EFCFEAFFE96E16C0EEFFBE
:1027300017C0EEFF18C0EEFF1200D9CFE6FFDACFC8
:10274000E6FFE1CFD9FFE2CFDAFF1200DFCFE6FFED
:10275000E66A7BEC26F0E552E552F3501200E76E94
:10276000080EE7CFDBFF1200EECF14F0EECF15F02E
:10277000EFCF16F0176A1200050EDBCF14F0150E1E
:10278000DB50D88014541200010EDBCF16F0020E7D
:10279000DBCF17F0186A1200E552E5CFDAFFE7CF7A
:1027A000D9FF12000A0E14C0DBFF0B0E15C0DBFFB1
:1027B0001200D9500A0F6DEF14F0F36E070EF3CF2D
:1027C000DBFF1200EECF14F0EFCF15F01200010E78
:1027D000DB2A020E1200FC0EDBCFE6FFFD0EDBCF84
:1027E000E6FF1200145E000E155AF70E14C0DBFF50
:1027F000F80E15C0DBFF14C0E9FF15C0EAFF120098
:10280000DA20EA6EEF2AEECFF6FF000EEF22EECFCF
:10281000F7FFEF22EECFF8FF1200040EDBCFE6FF4A
:10282000130EDB50E552E75C9ADFDB5004DF060E47
:10283000DB501200090EDB500A0DF350DF24D00FDD
:10284000E76E090EE7CFDBFF05EF13F0DB50F36E09
:10285000050E33EF13F0F70EDBCF14F0F80EDBCFDD
:1028600015F01200DFCFE6FF0FEF13F028DF030EA5
:10287000ECDEB4EF13F061EC0EF0E552E552E552F8
:10288000E55200091200BDDEEE50EFCFEAFFE96E1F
:10289000010E1200130EDB50F36E040E33EF13F033
:1028A000040EDB50F36E090E33EF13F0DBCFE6FFBF
:1028B0000FEF13F0E76E050EE7CFDBFF12008BDFA3
:1028C00032EF14F0DBCFE6FF86DF3BEF14F0D95098
:1028D000F90FE96EFF0E00EF14F0E96E000EDA203A
:0428E000EA6E12008A
:0C28E400D9CFE6FFE1CFD9FF020EE126BC
:1028F000FD0EDBCF14F0DB06FE0EDBCF15F001E2A0
:10290000DB061450151011E0DE6ADD6ADECF14F02C
:10291000DDCF15F0C80E145C000E155805E2DF2A55
:10292000010E01E3DB2AF2D7E3D7020EE15C02E2FB
:10293000E16AE552E16EE552E7CFD9FF1200D9CF47
:10294000E6FFE1CFD9FFFE0EDBCF06FEE552E7CF73
:10295000D9FF1200D9CFE6FFE1CFD9FF060EE1265D
:10296000939681868D9296928D9096908D84969472
:102970008A9A939ADE6ADE6ADE6ADD6ADD52DD5289
:10298000D9CFE9FFDACFEAFF640EEE5C000EEE5815
:10299000000EEE58000EEE580AE2D9CFE9FFDACF6A
:1029A000EAFFEE2A000EEE22EE22EE22E9D78C920A
:1029B000DE6ADE6ADE6ADD6ADD52DD52D9CFE9FF0A
:1029C000DACFEAFF640EEE5C000EEE58000EEE5811
:1029D000000EEE580AE2D9CFE9FFDACFEAFFEE2A7D
:1029E000000EEE22EE22EE22E9D78C82DE6ADE6A4B
:1029F000DE6ADD6ADD52DD52D9CFE9FFDACFEAFFC8
:102A0000640EEE5C000EEE58000EEE58000EEE580E
:102A10000AE2D9CFE9FFDACFEAFFEE2A000EEE2272
:102A2000EE22EE22E9D7AE0EE66E84D9E552DB0E39
:102A3000E66E80D9E552230EE66E7CD9E552D90EBA
:102A4000E66E78D9E552220EE66E74D9E552A10EF3
:102A5000E66E70D9E552C80EE66E6CD9E552DA0E14
:102A6000E66E68D9E552120EE66E64D9E552A80EFC
:102A7000E66E60D9E5523F0EE66E5CD9E552D50EA2
:102A8000E66E58D9E552A00EE66E54D9E552810E95
:102A9000E66E50D9E552600EE66E4CD9E552D30E83
:102AA000E66E48D9E552E66A45D9E552A60EE66ECD
:102AB00041D9E552AD0EE66E3DD9E5528B0EE66E7C
:102AC00039D9E552AF0EE66E35D9E5520A0EE66EFB
:102AD000E66A08DFE552E552A40EE66E2BD9E55210
:102AE000400EE66E27D9E552020EE66E23D9E55276
:102AF000100EE66E1FD9E552060EE15C02E2E16AB5
:102B0000E552E16EE552E7CFD9FF1200D9CFE6FFDB
:102B1000E1CFD9FF020EE126B00EDF6EB80EDF5C0A
:102B200023E2DFCFE6FF06D9E552020EE66E02D9B8
:102B3000E552100EE66EFED8E552010EDB6ADB5060
:102B4000146E156AD890155004E6840E145C000EBD
:102B5000155808E2FE0EDBCFE6FF25D9E552010E3F
:102B6000DB2AEDD7DF2ADAD7020EE15C03E200D0E0
:102B7000E16AE552E16EE552E7CFD9FF1200D9CF05
:102B8000E6FFE1CFD9FF020EE126FB0EDB50DF6E40
:102B9000FC0EDB50B00FE76E010EE7CFDBFFFD0E42
:102BA000DBCFF6FFFE0EDBCFF7FF0800F5501CE091
:102BB000E66ADFCFE6FF010EDBCFE6FFFD0EDBCFDF
:102BC000F6FFFE0EDBCFF7FF0800F550E66EFFD8EC
:102BD000E552E552E552E552FD0EDB2AFE0E01E319
:102BE000DB2A060EDF26DBD7020EE15C02E2E16A99
:102BF000E552E16EE552E7CFD9FF1200D9CFE6FFEB
:102C0000E1CFD9FF020EE126FB0EDB50DF6EFC0E9A
:102C1000DB50B00FE76E010EE7CFDBFFFD0EDBCF21
:102C2000E9FFFE0EDBCFEAFFEF501DE0FA0EDBCF2F
:102C3000E6FFDFCFE6FF010EDBCFE6FFFD0EDBCFC9
:102C4000E9FFFE0EDBCFEAFFEF50E66EC0D8E5529B
:102C5000E552E552E552FD0EDB2AFE0E01E3DB2ACA
:102C6000060EDF26DBD7020EE15C02E2E16AE552E6
:102C7000E16EE552E7CFD9FF1200D9CFE6FFE1CFF1
:102C8000D9FF050EE126030EDB6A040EDB6A020E95
:102C9000146EFA0EDBCFE7FF1450E726FA0EE7CFEB
:102CA000DBFFF90EDB50B00FDF6EFB0EDB50B00F19
:102CB000DF5C35E2DFCFE6FF3DD8E552FA0EDB50B0
:102CC0000F0BE66E37D8E552FA0EDB380F0B0F0B01
:102CD0001009E66E2FD8E552010EDB6AFC0EDB50C0
:102CE000F36E010EDBCFF4FFF350F45C16E2030E3B
:102CF000DB2A040E01E3DB2AFD0EDBCFF6FFDB2A25
:102D0000FE0EDBCFF7FF01E3DB2A0800F550E66E8D
:102D10004AD8E552010EDB2AE1D7DF2AC6D7050ED5
:102D2000E15C03E200D0E16AE552E16EE552E7CFF3
:102D3000D9FF1200D9CFE6FFE1CFD9FF040EE1267B
:102D4000956AFE0EDB508C6E8D808D828A9A8D94F2
:102D50008D928D828D849568DE6ADE6ADE6ADD6A18
:102D6000DD52DD52D9CFE9FFDACFEAFF0A0EEE5C81
:102D7000000EEE58000EEE58000EEE580AE2D9CFC3
:102D8000E9FFDACFEAFFEE2A000EEE22EE22EE2273
:102D9000E9D7040EE15C02E2E16AE552E16EE55238
:102DA000E7CFD9FF1200D9CFE6FFE1CFD9FF956A6F
:102DB000FE0EDB508C6E8D808D828A8A8D948D9272
:102DC0008D828D849568E552E7CFD9FF1200D9CF67
:102DD000E6FFE1CFD9FFE652200E146EFE0EDBCFE8
:102DE000E7FF1450E75EFE0EE7CFDBFFFD0EDBCF03
:102DF000E6FFA0DFE552020E146EFC0EDBCFE7FF0C
:102E00001450E726FC0EE7CFDBFFDB500F0BE66E1E
:102E100091DFE552FC0EDB380F0B0F0B100FE66E47
:102E200089DFE552FB0EDB5001E18CD0FE0EDBCFDB
:102E3000F6FFF76AF6BEF768050EF702F3CFF7FF65
:102E4000F602F3CFF6FFF450F7268D0EF6263E0E6F
:102E5000F7220800F51CE66EA6DFE552FE0EDBCF7A
:102E6000F6FFF76AF6BEF768050EF702F3CFF7FF35
:102E7000F602F3CFF6FFF450F7268D0EF6263E0E3F
:102E8000F722010EF626000EF7220800F51CE66E6A
:102E90008ADFE552FE0EDBCFF6FFF76AF6BEF76873
:102EA000050EF702F3CFF7FFF602F3CFF6FFF4506B
:102EB000F7268D0EF6263E0EF722020EF626000E9F
:102EC000F7220800F51CE66E6EDFE552FE0EDBCF42
:102ED000F6FFF76AF6BEF768050EF702F3CFF7FFC5
:102EE000F602F3CFF6FFF450F7268D0EF6263E0ECF
:102EF000F722030EF626000EF7220800F51CE66EF8
:102F000052DFE552FE0EDBCFF6FFF76AF6BEF7683A
:102F1000050EF702F3CFF7FFF602F3CFF6FFF450FA
:102F2000F7268D0EF6263E0EF722040EF626000E2C
:102F3000F7220800F51CE66E36DFE552E66833DF5F
:102F4000E5521BD10E01060501E08CD0FE0EDBCF51
:102F5000F6FFF76AF6BEF768050EF702F3CFF7FF44
:102F6000F602F3CFF6FFF450F726B20EF6263C0E2B
:102F7000F7220800F550E66E16DFE552FE0EDBCFB5
:102F8000F6FFF76AF6BEF768050EF702F3CFF7FF14
:102F9000F602F3CFF6FFF450F726B20EF6263C0EFB
:102FA000F722010EF626000EF7220800F550E66E15
:102FB000FADEE552FE0EDBCFF6FFF76AF6BEF768E3
:102FC000050EF702F3CFF7FFF602F3CFF6FFF4504A
:102FD000F726B20EF6263C0EF722020EF626000E5B
:102FE000F7220800F550E66EDEDEE552FE0EDBCF7E
:102FF000F6FFF76AF6BEF768050EF702F3CFF7FFA4
:10300000F602F3CFF6FFF450F726B20EF6263C0E8A
:10301000F722030EF626000EF7220800F550E66EA2
:10302000C2DEE552FE0EDBCFF6FFF76AF6BEF768AA
:10303000050EF702F3CFF7FFF602F3CFF6FFF450D9
:10304000F726B20EF6263C0EF722040EF626000EE8
:10305000F7220800F550E66EA6DEE552E66AA3DE2A
:10306000E5528BD0FE0EDBCFF6FFF76AF6BEF768AF
:10307000050EF702F3CFF7FFF602F3CFF6FFF45099
:10308000F7268D0EF6263E0EF7220800F550E66E66
:103090008ADEE552FE0EDBCFF6FFF76AF6BEF76872
:1030A000050EF702F3CFF7FFF602F3CFF6FFF45069
:1030B000F7268D0EF6263E0EF722010EF626000E9E
:1030C000F7220800F550E66E6EDEE552FE0EDBCF0D
:1030D000F6FFF76AF6BEF768050EF702F3CFF7FFC3
:1030E000F602F3CFF6FFF450F7268D0EF6263E0ECD
:1030F000F722020EF626000EF7220800F550E66EC3
:1031000052DEE552FE0EDBCFF6FFF76AF6BEF76839
:10311000050EF702F3CFF7FFF602F3CFF6FFF450F8
:10312000F7268D0EF6263E0EF722030EF626000E2B
:10313000F7220800F550E66E36DEE552FE0EDBCFD4
:10314000F6FFF76AF6BEF768050EF702F3CFF7FF52
:10315000F602F3CFF6FFF450F7268D0EF6263E0E5C
:10316000F722040EF626000EF7220800F550E66E50
:103170001ADEE552E66A17DEE55200D0E552E55266
:06318000E7CFD9FF1200A9
:0A318600D9CFE6FFE1CFD9FF040E18
:10319000E126DF6A010EDB6A020EDB6A010EF36EC6
:1031A000030EF3CFDBFF2DDA030EDB5029E0010E17
:1031B000DBCFE6FF020EDBCFE6FFDFCF14F0156AB0
:1031C00014BE1568730E1502F3CF15F0730E1402BA
:1031D000F3CF14F0F4501526600E1426000E1522BD
:1031E00014C0E6FF15C0E6FF97D9E552E552E55257
:1031F000E552030EDB6A4EEC23F0040801E0FBD736
:103200004EEC23F0030A01E13ED1010A01E101D1B4
:10321000030A01E1E6D0010A01E072D1DFCFE9FF44
:10322000EA6AE9BEEA68730EEA02F3CFEAFF730EB8
:10323000E902F3CFE9FFF450EA26600EE926000E1A
:10324000EA22170EE926000EEA22E9CF14F0EACFAF
:1032500015F0170E086E096A010EDBCF0DF0020E95
:10326000DBCF0EF0CAEC24F014500624E96E1550A2
:103270000720EA6E140EE926000EEA22EF50FF083E
:103280003CE0DFCFE9FFEA6AE9BEEA68730EEA02D2
:10329000F3CFEAFF730EE902F3CFE9FFF450EA2619
:1032A000600EE926000EEA22170EE926000EEA2239
:1032B000E9CF14F0EACF15F0170E086E096A010E77
:1032C000DBCF0DF0020EDBCF0EF0CAEC24F0145071
:1032D0000624E96E15500720EA6E140EE926000E4A
:1032E000EA22EFCFDFFF010EDB6A020EDB6A010E7E
:1032F000F36E030EF3CFDBFF73D0DFCFE9FFEA6A93
:10330000E9BEEA68730EEA02F3CFEAFF730EE90240
:10331000F3CFE9FFF450EA26600EE926000EEA2218
:10332000170EE926000EEA22E9CF14F0EACF15F0D5
:10333000170E086E096A010EDBCF0DF0020EDBCF0F
:103340000EF0CAEC24F014500624E96E1550072044
:10335000EA6E150EE926000EEA22EE50ED1040E06E
:10336000DFCFE9FFEA6AE9BEEA68730EEA02F3CF4B
:10337000EAFF730EE902F3CFE9FFF450EA26600E8C
:10338000E926000EEA22170EE926000EEA22E9CF0E
:1033900016F0EACF17F0170E086E096A010EDBCFA0
:1033A0000DF0020EDBCF0EF0CAEC24F0165006240E
:1033B000E96E17500720EA6E150EE926000EEA2284
:1033C000EECF14F0EFCF15F004D015C0FAFF145073
:1033D000F96EFBDF010EF36E030EF3CFDBFF11D9A5
:1033E0008FD0010EDBCF14F0020EDBCF15F01534B9
:1033F00004E214500008000E155405E2010EDB062D
:10340000020E01E2DB06010EF36E030EF3CFDBFFCB
:1034100077D0010EDBCF14F0020EDBCF15F0DFCF3B
:10342000E9FFEA6AE9BEEA68730EEA02F3CFEAFF4F
:10343000730EE902F3CFE9FFF450EA26600EE926A5
:10344000000EEA22140EE926000EEA22EECF16F054
:10345000EFCF17F01606000E175A15501718E8AEE2
:1034600002D0173404D01650145C1750155805E2DA
:10347000010EDB2A020E01E3DB2A010EF36E030EBE
:10348000F3CFDBFF3DD0DFCFE9FFEA6AE9BEEA68B0
:10349000730EEA02F3CFEAFF730EE902F3CFE9FFFE
:1034A000F450EA26600EE926000EEA22160EE926FE
:1034B000000EEA22EF50FF0822E0DFCFE9FFEA6AC0
:1034C000E9BEEA68730EEA02F3CFEAFF730EE9027F
:1034D000F3CFE9FFF450EA26600EE926000EEA2257
:1034E000160EE926000EEA22EFCFDFFF010EDB6A9F
:1034F000020EDB6A010EF36E030EF3CFDBFF00D08A
:10350000040052D6040EE15C02E2E16AE552E16E8B
:10351000E552E7CFD9FF1200D9CFE6FFE1CFD9FFBF
:10352000020EE126DE6ADD6ADECF14F0DDCF15F093
:10353000FD0EDBCFE9FFFE0EDBCFEAFF140EE9261E
:10354000000EEA22EECF16F0EFCF17F01550171845
:10355000E8AE02D0173404D01650145C175015583A
:1035600046E2FB0EDB50DF1804E1FC0EDB50DE52BE
:10357000DD1802E0000E01D0010EE66E140EE66EBC
:10358000DECF14F0DDCF15F0060E1424E66EFD0E2E
:10359000DBCFE9FFFE0EDBCFEAFF170EE926000EB8
:1035A000EA22E9CF18F0EACF19F0170E086E096A7F
:1035B000DECF0DF0DDCF0EF0CAEC24F0185006245B
:1035C000E96E19500720EA6EE9CF16F0EACF17F03E
:1035D00016C0E6FF17C0E6FFFEEC15F01A6E050EEA
:1035E000E15E1A50DF2A010E01E3DB2A9DD7020EAD
:1035F000E15C02E2E16AE552E16EE552E7CFD9FF14
:103600001200D9CFE6FFE1CFD9FF4C0EE126D9CF8A
:10361000E9FFDACFEAFF680EEE6E690EEE6E2D0E50
:10362000EE6E730EEE6E630EEE6E6F0EEE6E720E3B
:10363000EE6E650EEE6EEE6AD9500D0FE96EDACFC2
:10364000EAFF500EEE6E4C0EEE6E410EEE6E590E0F
:10365000EE6EEE6AD950120FE96EDACFEAFF530E22
:10366000EE6E500EEE6E410EEE6E430EEE6E450E99
:10367000EE6E200EEE6E490EEE6E4E0EEE6E560E95
:10368000EE6E410EEE6E440EEE6E450EEE6E520E76
:10369000EE6E530EEE6EEE6AD950210FE96EDACF60
:1036A000EAFF500EEE6E720EEE6E650EEE6E730E4B
:1036B000EE6EEE6E200EEE6E520EEE6E200EEE6E82
:1036C000620EEE6E750EEE6E740EEE6EEE6E6F0E98
:1036D000EE6E6E0EEE6EEE6AD950300FE96EDACFF6
:1036E000EAFF430EEE6E200EEE6E3D0EEE6E200EE5
:1036F000EE6E310EEE6E300EEE6E200EEE6E700E31
:10370000EE6E740EEE6E730EEE6EEE6AD9503B0FD7
:10371000E96EDACFEAFF410EEE6E200EEE6E3D0E40
:10372000EE6E200EEE6E320EEE6E300EEE6E200E4F
:10373000EE6E700EEE6E740EEE6E730EEE6EEE6A40
:10374000AA0EF36E460EF3CFDBFFAA0EF36E470E02
:10375000F3CFDBFF020EF36E4A0EF3CFDBFF4B0E0F
:10376000DB6AAAEC14F0E66A86EC15F0E5521FEC71
:1037700022F0AFEC22F0010EE66E9FEC14F0E55261
:10378000E66A1E0EE66E040EE66ED950300FE66E47
:10379000000EDA20E66EFEEC15F0146E050EE15E0A
:1037A0001450E66A1E0EE66E050EE66ED9503B0F0B
:1037B000E66E000EDA20E66EFEEC15F0146E050ED5
:1037C000E15E1450E66A9FEC14F0E552E66A0F0ED3
:1037D000E66EE66AD9CFE6FFDACFE6FFFEEC15F03B
:1037E000146E050EE15E1450E66A320EE66E020EAD
:1037F000E66ED9500D0FE66E000EDA20E66EFEEC96
:1038000015F0146E050EE15E1450E66A140EE66EB5
:10381000030EE66ED950120FE66E000EDA20E66E49
:10382000FEEC15F0146E050EE15E14504A0EDBCF6F
:10383000E6FF4B0EDBCFE6FFFE0EE66E000EE66EF9
:10384000460EDBCFE6FF470EDBCFE6FF7BEC1CF03E
:10385000146E060EE15E14500001FE51166E176ADA
:1038600016C017F0166AFF5100011624146E000EE0
:103870001720156E480E14C0DBFF490E15C0DBFF84
:10388000E66A9FEC14F0E552480EDBCFE6FF490EE6
:10389000DBCFE6FF520E146E4D0E156E166A14C085
:1038A000E6FF15C0E6FF16C0E6FFD950090FE66E29
:1038B000000EDA20E66E4EEC24F0176E070EE15E85
:1038C0001750E66A550EE66EE66AD950090FE66EA5
:1038D000000EDA20E66EFEEC15F0146E050EE15EC9
:1038E00014504C0EE15C02E2E16AE552E16EE552F1
:0638F000E7CFD9FF120032
:0A38F600D9CFE6FFE1CFD9FF020EA3
:10390000E126DE6ADD6AFD0EDBCF14F0FE0EDBCFB2
:1039100015F0100ED89015321432E804FBE1145063
:10392000F86EFD0EDBCF14F0FE0EDBCF15F015C0E8
:1039300014F0156A1450F76EFD0EDBCF14F0FE0E76
:10394000DBCF15F00001156A1450F66EDE6ADD6AF1
:10395000DECF14F0DDCF15F0F90EDBCF16F0FA0E46
:10396000DBCF17F015501718E8AE02D0173404D08B
:103970001650145C1750155814E20900FB0EDBCFEB
:1039800014F0FC0EDBCF15F0DE501424E96EDD5090
:103990001520EA6EF5CFEFFFDF2A010E01E3DB2AE7
:1039A000D7D7020EE15C02E2E16AE552E16EE55230
:1039B000E7CFD9FF1200D9CFE6FFE1CFD9FF040E40
:1039C000E126DE6ADD6A020EDB6A030EDB6AF90EAF
:1039D000DBCF14F0FA0EDBCF15F0153404E21450EF
:1039E0000008000E155401E324D1F90EDBCF14F0CA
:1039F000FA0EDBCF15F0D890155004E6400E145C9B
:103A0000000E155801E383D0A68ADE6ADD6ADECF98
:103A100014F0DDCF15F0D890155004E6020E145CBA
:103A2000000E155861E2020EDBCF16F0030EDBCF5D
:103A300017F0FD0EDB501624146EFE0EDB5017201F
:103A4000156E100ED89015321432E804FBE11450B4
:103A5000F86E020EDBCF16F0030EDBCF17F0FD0E73
:103A6000DB501624146EFE0EDB501720156E15C0A9
:103A700014F0156A1450F76E020EDBCF16F0030E29
:103A8000DBCF17F00D6A010E0E6E16C008F017C0DE
:103A900009F0A4EC24F004C016F005C017F0FD0EE8
:103AA000DB501624146EFE0EDB501720156E1450DA
:103AB000F66E020EDBCF14F0030EDBCF15F0FB0E1B
:103AC000DB501424E96EFC0EDB501520EA6EEF503B
:103AD000F56E0C00DF2A010E01E3DB2A020EDB2A61
:103AE000030E01E3DB2A93D7A684F29E550EA76E40
:103AF000AA0EA76EA682A694F28ED950F90FE96E8F
:103B0000FF0EDA20EA6E020EEE5E000EED5AF90E9E
:103B1000DBCF14F0FA0EDBCF15F0153404E21450AD
:103B20004008000E155401E383D0A69ADE6ADD6AD0
:103B3000DECF14F0DDCF15F0D890155004E6400E1E
:103B4000145C000E155861E2020EDBCF16F0030E76
:103B5000DBCF17F0FD0EDB501624146EFE0EDB508B
:103B60001720156E100ED89015321432E804FBE1C0
:103B70001450F86E020EDBCF16F0030EDBCF17F0F9
:103B8000FD0EDB501624146EFE0EDB501720156E52
:103B900015C014F0156A1450F76E020EDBCF16F044
:103BA000030EDBCF17F00D6A010E0E6E16C008F083
:103BB00017C009F0A4EC24F004C016F005C017F0FB
:103BC000FD0EDB501624146EFE0EDB501720156E12
:103BD0001450F66E020EDBCF14F0030EDBCF15F09F
:103BE000FB0EDB501424E96EFC0EDB501520EA6E50
:103BF000EF50F56E0C00DF2A010E01E3DB2A020E06
:103C0000DB2A030E01E3DB2A93D7D950F90FE96EC3
:103C1000FF0EDA20EA6E400EEE5E000EED5AA6842C
:103C2000F29E550EA76EAA0EA76EA682A694F28EDD
:103C3000CED6040EE15C02E2E16AE552E16EE552A5
:103C4000E7CFD9FF1200D9CFE6FFE1CFD9FFFD0EB4
:103C5000DBCF14F0FE0EDBCF15F0100ED89015322E
:103C60001432E804FBE11450F86EFD0EDBCF14F0C3
:103C7000FE0EDBCF15F015C014F0156A1450F76E68
:103C8000FD0EDBCF14F0FE0EDBCF15F00001156A40
:103C90001450F66EA688A684F29E550EA76EAA0E44
:103CA000A76EA682A694F28EA698E552E7CFD9FF1A
:023CB000120000
:0E3CB200000000000000004F000000070007A7
:103CC00000147F147F14242A7F2A122313086462AD
:103CD00036495522500005030000001C2241000017
:103CE00041221C0014083E081408083E0808005031
:103CF0003000000808080808006060000020100874
:103D000004023E5149453E00427F40004261514914
:103D1000462141454B311814127F1027454545393E
:103D20003C4A49493001710905033649494936067B
:103D30004949291E00363600000056360000081496
:103D400022410014141414140041221408020151D9
:103D50000906324979413EC8342334C8023CCB3C81
:103D600002884F394F88048F798F04048AFF8A04B0
:103D70004C74CE744C5A00FF005A00003C00000006
:103D8000001800002040413F017F081422417F407D
:103D9000404040FFFFFFFFFF808080808080808068
:103DA00080808080C02000F80402010000007F9D18
:103DB0009F009F9D7F0000010204F83F4040403F6C
:103DC0001F2040201F3F4038403F63140814630702
:103DD000087008076151494543007F4141000204D2
:103DE0000810200041417F000402010204404040CD
:103DF0004040000102040020545454787F48444459
:103E0000383844444420384444487F385454541883
:103E1000087E0901020C5252523E7F0804047800C9
:103E2000447D40002040443D007F10284400004174
:103E30007F40007C041804787C08040478384444EB
:103E400044387C14141408081414187C7C080404E6
:103E5000084854545420043F4440203C4040207CB7
:103E60001C2040201C3C4030403C44281028440C7E
:103E70005050503C4464544C44000836410000000B
:103E80007F00000041360800020102040200000029
:103E9000000000004F00000007000700147F147F9F
:103EA00014242A7F2A1223130864623649552250AB
:103EB0000005030000001C2241000041221C0014E8
:103EC000083E081408083E080800503000000808A2
:103ED000080808006060000020100804023E5149F4
:103EE000453E00427F400042615149462141454BD9
:103EF000311814127F1027454545393C4A4949304D
:103F000001710905033649494936064949291E0008
:103F10003636000000563600000814224100141402
:103F2000141414004122140802015109063249797F
:103F3000413E7E1111117E7F494949363E41414142
:103F4000227F4141221C7F494949417F09090901DA
:103F50003E4149497A7F0808087F00417F4100209F
:103F600040413F017F081422417F404040407F0292
:103F70000C027F7F0408107F3E4141413E7F0909CA
:103F800009063E4151215E7F0919294646494949A2
:103F90003101017F01013F4040403F1F2040201F71
:103FA0003F4038403F6314081463070870080761F6
:103FB00051494543007F414100020408102000415F
:103FC000417F0004020102044040404040000102E1
:103FD000040020545454787F4844443838444444BE
:103FE00020384444487F3854545418087E0901024C
:103FF0000C5252523E7F0804047800447D40002059
:1040000040443D007F1028440000417F40007C0474
:104010001804787C0804047838444444387C141428
:104020001408081414187C7C0804040848545454D8
:1040300020043F4440203C4040207C1C2040201C69
:104040003C4030403C44281028440C5050503C44E4
:1040500064544C44000836410000007F00000041D9
:0840600036080002010204020F
:08406800D9CFE6FFE1CFD9FF3B
:10407000030EE12668D8736A820E726E739C949464
:104080009396958C949E7288728AE66AA0D8E552BF
:10409000E76E020EE7CFDBFF0000D950020FE96E9A
:1040A000DACFEAFFEF50070B020801E00000140E20
:1040B000E66E8DD8E552E76E020EE7CFDBFFFE0E0F
:1040C000DB50146ED950020FE96EDACFEAFF1450BC
:1040D000030BF36EF346F346F346E70EEF14F310CB
:1040E000EF6E020EDB80DB92DB94020EDBCFE6FF8D
:1040F000140EE66E3AD8E552E552010EE66E67D828
:10410000E552DE6EDD6A0000110EE66E60D8E55203
:10411000DE6EDD6A0000E66A110EE66E26D8E55214
:10412000E5520000110EE66E52D8E552DE6EDD6AF1
:104130000000030EE15C02E2E16AE552E16EE55245
:10414000E7CFD9FF1200550EA76EAA0EA76E0E017B
:10415000FF91090ECC6F0A0ED36F170EFB6F550E31
:10416000A76EAA0EA76EFF811200D9CFE6FFE1CF9E
:10417000D9FFE652DF6AFE0EDB50140804E0FE0EA3
:10418000DB50340806E1140EE66E21D8E552E00B50
:10419000DF6E8B9EA49EFE0EDB50756EA4AEFED726
:1041A0002ED8A49EFE0EDB500A0805E1FD0EDB5062
:1041B0007F0B756E04D0FD0EDB50DF10756EA4AE64
:1041C000FED78B8EE552E552E7CFD9FF1200D9CF4B
:1041D000E6FFE1CFD9FF8B9EA49EFE0EDB50800947
:1041E000756EA4AEFED70BD8A49E756AA4AEFED79A
:1041F0008B8E755000D0E552E7CFD9FF1200D9CF92
:10420000E6FFE1CFD9FF020EE126DE6ADD6ADECFEE
:1042100014F0DDCF15F0D890155004E6400E145C74
:10422000000E155805E2DF2A010E01E3DB2AEFD765
:10423000020EE15C02E2E16AE552E16EE552E7CF8F
:10424000D9FF1200D9CFE6FFE1CFD9FFE652060E23
:10425000146E14C0E6FF020EE66EB9DFE552E552B9
:10426000E7CF14F014C0E7FFE75204E0E8427F0B09
:10427000E706FCE1DF6E030EE66EA9DFE552146E81
:10428000156A14BE1568FD0EDBCFE9FFFE0EDBCF0D
:10429000EAFF14C0EEFF15C0EDFFFD0EDBCFE9FF16
:1042A000FE0EDBCFEAFF020ED890EE36ED36E806C2
:1042B000FBE1DF50146E156AFD0EDBCFE9FFFE0E49
:1042C000DBCFEAFF1450EE121550ED12060E146EFD
:1042D00014C0E6FF040EE66E7ADFE552E552E7CF42
:1042E00014F014C0E7FFE75204E0E8427F0BE70652
:1042F000FCE1DF6E050EE66E6ADFE552146E156AAC
:1043000014BE1568FD0EDBCFE9FFFE0EDBCFEAFF22
:10431000020EE926000EEA2214C0EEFF15C0EDFFE2
:10432000FD0EDBCFE9FFFE0EDBCFEAFF020EE92632
:10433000000EEA22020ED890EE36ED36E806FBE1DA
:10434000DF50146E156AFD0EDBCFE9FFFE0EDBCFEA
:10435000EAFF020EE926000EEA221450EE12155072
:10436000ED12060E146E14C0E6FFE66E30DFE55265
:10437000E552E7CF14F014C0E7FFE75204E0E8424B
:104380007F0BE706FCE1DF6E070EE66E20DFE552ED
:10439000146E156A14BE1568FD0EDBCFE9FFFE0E24
:1043A000DBCFEAFF040EE926000EEA2214C0EEFF7E
:1043B00015C0EDFFFD0EDBCFE9FFFE0EDBCFEAFF00
:1043C000040EE926000EEA22020ED890EE36ED36F3
:1043D000E806FBE1DF50146E156AFD0EDBCFE9FF46
:1043E000FE0EDBCFEAFF040EE926000EEA2214508F
:1043F000EE121550ED12E552E552E7CFD9FF12004B
:104400000F0E9212F00E0F014817C18EC19CC70EFD
:10441000C1140809C16EF80EC1140209C16E498F9A
:10442000C29CC29EC2801200030EB16EB392B396BC
:10443000B288B28EB290B292A494B38E1200F4DF1E
:10444000DFDFAFEF22F0D9CFE6FFE1CFD9FF020ED9
:10445000E126FE0EDB500F0BF36EF346F346C30E60
:10446000C214F310C26EFE0EDBCFE9FFEA6AE9BEAA
:10447000EA68FA0EE926000EEA22EF503F0BF36ECF
:10448000F346F346030EB114F310B16EB38EB3824C
:1044900004D9B392B28001D9B2909E9CC2829EACE4
:1044A000FED7C3CFDEFFC4CFDDFFDECF14F0DDCFFC
:1044B00015F014C0F3FF15C0F4FF020EE15C03E237
:1044C00000D0E16AE552E16EE552E7CFD9FF120074
:1044D000D9CFE6FFE1CFD9FF040EE126020EDB6A59
:1044E000030EDB6ADE6ADD6ADECF14F0DDCF15F085
:1044F000D890155004E6020E145C000E155817E211
:10450000FE0EDBCFE6FF9FDFE552F3CF14F0F4CFD2
:1045100015F0D950020FE96EDACFEAFF1450EE26FB
:104520001550ED22DF2A010E01E3DB2ADDD7020E52
:10453000DBCF14F0030EDBCF15F0D8901532143218
:1045400014C0F3FF15C0F4FF040EE15C03E200D0D9
:10455000E16AE552E16EE552E7CFD9FF1200D9CF0B
:10456000E6FFE1CFD9FF030EE126020EDB6A040E5F
:10457000F36E020EDBCFF4FFF350F45C01E383D063
:10458000020EDB50EA6AFA0FE96E000EEA22EF6AC9
:10459000020EDBCFE6FF9CDFE552F3CFDEFFF4CF68
:1045A000DDFFDECF14F0DDCF15F0200E145C030E1E
:1045B00015582EE2020EDB50EA6AFA0FE96E000E81
:1045C000EA22EF501F0809E1020EDB50EA6AFA0FF7
:1045D000E96E000EEA22EF6A1AD0020EDB50EA6A98
:1045E000FA0FE96E000EEA22EF2A020EDBCFE6FF99
:1045F0006FDFE552F3CFDEFFF4CFDDFFDECF14F047
:10460000DDCF15F0200E145C030E1558D3E338D01F
:10461000D9CFE9FFDACFEAFF200ED880EE54030E9F
:10462000ED542EE2020EDB50EA6AFA0FE96E000E3C
:10463000EA22EF50E10809E1020EDB50EA6AFA0FC4
:10464000E96E000EEA22EF6A1BD0020EDB50EA6A26
:10465000FA0FE96E000EEA22EF06020EDBCFE6FF4C
:1046600037DFE552F3CFDEFFF4CFDDFFD9CFE9FF2F
:10467000DACFEAFF200ED880EE54030EED54D2E3D9
:10468000020EDB2A74D7030EE15C02E2E16AE55216
:10469000E16EE552E7CFD9FF12001200D9CFE6FF55
:1046A000E1CFD9FF040EE126020EDB6A030EDB6ABE
:1046B000C6DE55DF020EDB6A030EDB6A020EDBCFBD
:1046C00014F0030EDBCF15F0D890155004E6040E5D
:1046D000145C000E15581BE2020EDBCFE6FFF8DE7D
:1046E000E552F3CFDEFFF4CFDDFFDECF14F0DDCFF8
:1046F00015F08A0E145C020E155803E2020EDB5010
:1047000008D0020EDB2A030E01E3DB2AD7D7040E02
:1047100000D0146E040EE15C02E2E16AE552E16E43
:0A4720001450E552E7CFD9FF120054
:06472A00DACFE4FFE2CF4C
:10473000DAFFE9CFE4FFEACFE4FFF6CFE4FFF7CFFB
:10474000E4FFF5CFE4FFF3CFE4FFF4CFE4FFFACFCB
:10475000E4FF00EE00F0140EE80403E3EECFE4FF04
:10476000FBD700EE14F0100EE80403E3EECFE4FFF5
:10477000FBD7E652F2A20ED00E010051011102E069
:10478000000E01D0010E006F016B800B01E001698A
:10479000F29205D0F2A403D034EC00F0F294E5528A
:1047A00000EE23F0100EE80403E3E5CFEDFFFBD7A6
:1047B00000EE13F0140EE80403E3E5CFEDFFFBD7A2
:1047C000E5CFFAFFE5CFF4FFE5CFF3FFE5CFF5FF47
:1047D000E5CFF7FFE5CFF6FFE5CFEAFFE5CFE9FF4D
:0847E000E5CFDAFF1100120021
:0847E800C0801200D9CFE6FFEA
:1047F000E1CFD9FF070EE126050EDB6A060EDB6A64
:10480000BCEC26F0AAEC14F0E66A86EC15F0E55252
:10481000EBDF0E010051011131E0050EDB2A060E1F
:1048200001E3DB2A050EDBCFE6FF060EDBCFE6FF5A
:10483000630E146E4D0E156E166A14C0E6FF15C099
:10484000E6FF16C0E6FFD9CFE6FFDACFE6FF4EEC73
:1048500024F0176E070EE15E1750E66A0C0EE66E46
:104860000A0EE66ED9CFE6FFDACFE6FFFEEC15F0D2
:10487000146E050EE15E14500400CBD70E010051FA
:10488000011101E0FBD7C5D7070EE15C02E2E16A46
:0C489000E552E16EE552E7CFD9FF1200BF
:04489C00D9CFE6FF8B
:1048A000DACFE6FFE1CFD9FFE2CFDAFFE652E652F8
:1048B000E652E652D950F90F146EFF0EDA20156E4B
:1048C000020E14C0DBFF030E15C0DBFF020EDBCFB0
:1048D000E6FF030EDBCFE6FFF90EDBCFE6FFFA0EB5
:1048E000DBCFE6FFFB0EDBCFE6FFD950FC0FE66E19
:1048F000FF0EDA20E66E77EC0EF0146E070EE15C28
:1049000002E2E16AE552E16E1450F3CFDEFFF4CF2C
:10491000DDFFFC0EDBCFE9FFFD0EDBCFEAFFEF6A28
:10492000DECF14F0DDCF15F014C0F3FF15C0F4FF97
:10493000040EE15C02E2E16AE552E16EE552E5CF88
:08494000DAFFE7CFD9FF1200F6
:08494800006A0EAEADEF24F091
:104950000D6C0E1EE86A0E22001E09AEB5EF24F0A3
:10496000086C091EE86A0922001E65EC26F009BEE3
:10497000C5EF24F000AE000C086C091EE86A09229D
:10498000046C051EE86A0522000C00BEBCEF24F092
:104990000188FF0C09C013F008C012F008500D0286
:1049A000F4CF07F0F3CF06F009500E02F4CF09F070
:1049B000F3CF08F00D02F3500726F4500822E86AFE
:1049C000092212500E02F3500726F4500822E86A1A
:1049D00009220EAEF0EF24F01250085E1350095A6F
:0E49E00013AE000C0D50085E0E50095A000C6C
:0249EE001E0E9B
:1049F000F66E000EF76E000EF86E00010900F5501D
:104A0000EF6F0900F550F06F03E1EF6701D03DD083
:104A10000900F550EA6F0900F550EB6F0900F550F9
:104A2000EC6F09000900F550E96E0900F550EA6ED7
:104A3000090009000900F550ED6F0900F550EE6F0F
:104A400009000900F6CFF1F0F7CFF2F0F8CFF3F05C
:104A5000EAC0F6FFEBC0F7FFECC0F8FF0001ED5332
:104A600002E1EE5307E00900F550EE6EED07F8E2C3
:104A7000EE07F9D7F1C0F6FFF2C0F7FFF3C0F8FF79
:0C4A80000001EF07000EF05BBFD7120032
:044A8C00D59CD59A46
:104A9000D596F80ED5140709D56EF184F294F28AF2
:104AA0001200D9CFE6FFE1CFD9FF020EE1260B0EAF
:104AB000086E096AFD0EDBCF0DF0FE0EDBCF0EF0A7
:104AC000CAEC24F006C0DEFF07C0DDFFDECF14F025
:104AD000DDCF15F0FF0ED88014561556010E1426A2
:104AE000000E152214C0DEFF15C0DDFFD59EDECFFF
:104AF00014F0DDCF15F015C014F0156A1450D76E00
:104B0000DECF14F0DDCF15F01450D66EF294D58EB2
:104B1000020EE15C02E2E16AE552E16EE552E7CFA6
:084B2000D9FF1200D59E12001E
:084B2800D9CFE6FFDACFE6FF6A
:104B3000E1CFD9FFE2CFDAFFFB0EDBCF14F0FC0EA2
:104B4000DBCF15F00001800E15141AE1FB0EDBCF50
:104B5000E9FFFC0EDBCFEAFFEECFF3FFEDCFF4FF72
:104B6000EE2A000EEF22F3CFE9FFF4CFEAFFFD0EAD
:104B7000DBCFEFFFEF50156AF36E15C0F4FF10D0D6
:104B8000FB0EDB50FE0806E1FD0EDBCFE6FF9BECE3
:104B900026F005D0FD0EDBCFE6FF03EC00F0E5527A
:0C4BA000E552E5CFDAFFE7CFD9FF1200A5
:044BAC0006500B02A2
:104BB000F3CF02F0F4CF03F00C02F3500326000E03
:104BC000F420046E06500D02F3500426000EF4206B
:104BD000056E06500E02F350052607500B02F350E7
:104BE0000326F4500422000E052207500C02F35055
:104BF0000426F450052207500D02F35005260850F4
:104C00000B02F3500426F450052208500C02F35016
:0C4C1000052609500B02F3500526120087
:044C1C00FE0EE3CFD6
:104C2000E9FFFF0EE3CFEAFFF36AF46AEE5203E016
:104C3000F34AF42AFBD71200FF0EE3CFF8FFE55248
:104C4000FF0EE3CFF7FFE552FF0EE3CFF6FFE5528D
:104C5000E66AE66AE66A0900F55209E0FD0EE32A13
:104C600005E1FE0EE32A02E1FF0EE32AF4D7FD0E72
:104C7000E3CF07F0FE0EE3CF08F0FF0EE3CF09F01D
:024C8000120020
:0E4C8200056A046A036A026A200EE76ED89083
:104C90000636073608360936023603360436053638
:104CA0000B50025C0C5003580D5004580E50055820
:104CB00009E30B50025E0C50035A0D50045A0E507B
:0A4CC000055A062AE72EE4D7120079
:064CCA00056A046A100EE9
:104CD000E76ED89008360936043605360D50045C68
:104CE0000E50055805E30D50045E0E50055A082A73
:064CF000E72EF0D71200D0
:0A4CF600F36AF46AFF0EE124E96E90
:104D0000FF0EE220EA6EED6607D02F0EEF6404D0AE
:0A4D10003A0EEF6001D0F32A120002
:064D1A001DEE00F02DEE7D
:104D200000F0F86A019CF7EC24F007EC00F0CAEC04
:064D300026F0FBD7120083
:0A4D3600FF0EE350ADBA04D0B06ADE
:104D4000AC8EAD8A949CADA2FED7AE6EF36EF46AC3
:024D500012004F
:0E4D5200256400486967682D73636F726520E1
:064D60002564002564003B
:0A4D66003031323334353637383936
:074D700061626364656600E7
:014D7700003B
:084D78000F0149899380F292BA
:064D8000F288F29212001D
:0A4D860000EE00F00E0EEE6AEA6285
:044D9000FDD7120039
:0C4D9400F4EC23F0C3EC18F0FDD7120083
:104DA0004D61696E0000000000000000000000007E
:104DB000000000000200FF47616D65000000000078
:104DC0000000000000000000000000FF80004162C1
:104DD0006F7574000000000000000000000000007B
:104DE0000000FF3219000000000000000000000079
:104DF00000000000000000000000000000000000B3
:104E000000000000000000000000000000000000A2
:034E10000000009F
:0C4E130001000000000000000000000092
:01FFFB00F90C
:00000001FF
